{
  "contractName": "EduCertificate",
  "abi": [
    {
      "inputs": [],
      "stateMutability": "nonpayable",
      "type": "constructor"
    },
    {
      "inputs": [
        {
          "internalType": "address",
          "name": "sender",
          "type": "address"
        },
        {
          "internalType": "uint256",
          "name": "tokenId",
          "type": "uint256"
        },
        {
          "internalType": "address",
          "name": "owner",
          "type": "address"
        }
      ],
      "name": "ERC721IncorrectOwner",
      "type": "error"
    },
    {
      "inputs": [
        {
          "internalType": "address",
          "name": "operator",
          "type": "address"
        },
        {
          "internalType": "uint256",
          "name": "tokenId",
          "type": "uint256"
        }
      ],
      "name": "ERC721InsufficientApproval",
      "type": "error"
    },
    {
      "inputs": [
        {
          "internalType": "address",
          "name": "approver",
          "type": "address"
        }
      ],
      "name": "ERC721InvalidApprover",
      "type": "error"
    },
    {
      "inputs": [
        {
          "internalType": "address",
          "name": "operator",
          "type": "address"
        }
      ],
      "name": "ERC721InvalidOperator",
      "type": "error"
    },
    {
      "inputs": [
        {
          "internalType": "address",
          "name": "owner",
          "type": "address"
        }
      ],
      "name": "ERC721InvalidOwner",
      "type": "error"
    },
    {
      "inputs": [
        {
          "internalType": "address",
          "name": "receiver",
          "type": "address"
        }
      ],
      "name": "ERC721InvalidReceiver",
      "type": "error"
    },
    {
      "inputs": [
        {
          "internalType": "address",
          "name": "sender",
          "type": "address"
        }
      ],
      "name": "ERC721InvalidSender",
      "type": "error"
    },
    {
      "inputs": [
        {
          "internalType": "uint256",
          "name": "tokenId",
          "type": "uint256"
        }
      ],
      "name": "ERC721NonexistentToken",
      "type": "error"
    },
    {
      "anonymous": false,
      "inputs": [
        {
          "indexed": true,
          "internalType": "address",
          "name": "owner",
          "type": "address"
        },
        {
          "indexed": true,
          "internalType": "address",
          "name": "approved",
          "type": "address"
        },
        {
          "indexed": true,
          "internalType": "uint256",
          "name": "tokenId",
          "type": "uint256"
        }
      ],
      "name": "Approval",
      "type": "event"
    },
    {
      "anonymous": false,
      "inputs": [
        {
          "indexed": true,
          "internalType": "address",
          "name": "owner",
          "type": "address"
        },
        {
          "indexed": true,
          "internalType": "address",
          "name": "operator",
          "type": "address"
        },
        {
          "indexed": false,
          "internalType": "bool",
          "name": "approved",
          "type": "bool"
        }
      ],
      "name": "ApprovalForAll",
      "type": "event"
    },
    {
      "anonymous": false,
      "inputs": [
        {
          "indexed": true,
          "internalType": "address",
          "name": "from",
          "type": "address"
        },
        {
          "indexed": true,
          "internalType": "address",
          "name": "to",
          "type": "address"
        },
        {
          "indexed": true,
          "internalType": "uint256",
          "name": "tokenId",
          "type": "uint256"
        }
      ],
      "name": "Transfer",
      "type": "event"
    },
    {
      "inputs": [
        {
          "internalType": "address",
          "name": "to",
          "type": "address"
        },
        {
          "internalType": "uint256",
          "name": "tokenId",
          "type": "uint256"
        }
      ],
      "name": "approve",
      "outputs": [],
      "stateMutability": "nonpayable",
      "type": "function"
    },
    {
      "inputs": [
        {
          "internalType": "address",
          "name": "owner",
          "type": "address"
        }
      ],
      "name": "balanceOf",
      "outputs": [
        {
          "internalType": "uint256",
          "name": "",
          "type": "uint256"
        }
      ],
      "stateMutability": "view",
      "type": "function"
    },
    {
      "inputs": [
        {
          "internalType": "uint256",
          "name": "tokenId",
          "type": "uint256"
        }
      ],
      "name": "getApproved",
      "outputs": [
        {
          "internalType": "address",
          "name": "",
          "type": "address"
        }
      ],
      "stateMutability": "view",
      "type": "function"
    },
    {
      "inputs": [
        {
          "internalType": "address",
          "name": "owner",
          "type": "address"
        },
        {
          "internalType": "address",
          "name": "operator",
          "type": "address"
        }
      ],
      "name": "isApprovedForAll",
      "outputs": [
        {
          "internalType": "bool",
          "name": "",
          "type": "bool"
        }
      ],
      "stateMutability": "view",
      "type": "function"
    },
    {
      "inputs": [],
      "name": "name",
      "outputs": [
        {
          "internalType": "string",
          "name": "",
          "type": "string"
        }
      ],
      "stateMutability": "view",
      "type": "function"
    },
    {
      "inputs": [
        {
          "internalType": "uint256",
          "name": "tokenId",
          "type": "uint256"
        }
      ],
      "name": "ownerOf",
      "outputs": [
        {
          "internalType": "address",
          "name": "",
          "type": "address"
        }
      ],
      "stateMutability": "view",
      "type": "function"
    },
    {
      "inputs": [
        {
          "internalType": "address",
          "name": "from",
          "type": "address"
        },
        {
          "internalType": "address",
          "name": "to",
          "type": "address"
        },
        {
          "internalType": "uint256",
          "name": "tokenId",
          "type": "uint256"
        }
      ],
      "name": "safeTransferFrom",
      "outputs": [],
      "stateMutability": "nonpayable",
      "type": "function"
    },
    {
      "inputs": [
        {
          "internalType": "address",
          "name": "from",
          "type": "address"
        },
        {
          "internalType": "address",
          "name": "to",
          "type": "address"
        },
        {
          "internalType": "uint256",
          "name": "tokenId",
          "type": "uint256"
        },
        {
          "internalType": "bytes",
          "name": "data",
          "type": "bytes"
        }
      ],
      "name": "safeTransferFrom",
      "outputs": [],
      "stateMutability": "nonpayable",
      "type": "function"
    },
    {
      "inputs": [
        {
          "internalType": "address",
          "name": "operator",
          "type": "address"
        },
        {
          "internalType": "bool",
          "name": "approved",
          "type": "bool"
        }
      ],
      "name": "setApprovalForAll",
      "outputs": [],
      "stateMutability": "nonpayable",
      "type": "function"
    },
    {
      "inputs": [
        {
          "internalType": "bytes4",
          "name": "interfaceId",
          "type": "bytes4"
        }
      ],
      "name": "supportsInterface",
      "outputs": [
        {
          "internalType": "bool",
          "name": "",
          "type": "bool"
        }
      ],
      "stateMutability": "view",
      "type": "function"
    },
    {
      "inputs": [],
      "name": "symbol",
      "outputs": [
        {
          "internalType": "string",
          "name": "",
          "type": "string"
        }
      ],
      "stateMutability": "view",
      "type": "function"
    },
    {
      "inputs": [
        {
          "internalType": "uint256",
          "name": "tokenId",
          "type": "uint256"
        }
      ],
      "name": "tokenURI",
      "outputs": [
        {
          "internalType": "string",
          "name": "",
          "type": "string"
        }
      ],
      "stateMutability": "view",
      "type": "function"
    },
    {
      "inputs": [
        {
          "internalType": "address",
          "name": "from",
          "type": "address"
        },
        {
          "internalType": "address",
          "name": "to",
          "type": "address"
        },
        {
          "internalType": "uint256",
          "name": "tokenId",
          "type": "uint256"
        }
      ],
      "name": "transferFrom",
      "outputs": [],
      "stateMutability": "nonpayable",
      "type": "function"
    },
    {
      "inputs": [
        {
          "internalType": "address",
          "name": "to",
          "type": "address"
        }
      ],
      "name": "safeMint",
      "outputs": [
        {
          "internalType": "uint256",
          "name": "",
          "type": "uint256"
        }
      ],
      "stateMutability": "nonpayable",
      "type": "function"
    }
  ],
  "bytecode": "0x608060405234801562000010575f80fd5b506040518060400160405280600e81526020016d456475436572746966696361746560901b815250604051806040016040528060058152602001641150d1549560da1b815250815f90816200006691906200011e565b5060016200007582826200011e565b505050620001e6565b634e487b7160e01b5f52604160045260245ffd5b600181811c90821680620000a757607f821691505b602082108103620000c657634e487b7160e01b5f52602260045260245ffd5b50919050565b601f82111562000119575f81815260208120601f850160051c81016020861015620000f45750805b601f850160051c820191505b81811015620001155782815560010162000100565b5050505b505050565b81516001600160401b038111156200013a576200013a6200007e565b62000152816200014b845462000092565b84620000cc565b602080601f83116001811462000188575f8415620001705750858301515b5f19600386901b1c1916600185901b17855562000115565b5f85815260208120601f198616915b82811015620001b85788860151825594840194600190910190840162000197565b5085821015620001d657878501515f19600388901b60f8161c191681555b5050505050600190811b01905550565b610f9480620001f45f395ff3fe608060405234801561000f575f80fd5b50600436106100e5575f3560e01c80636352211e11610088578063a22cb46511610063578063a22cb465146101db578063b88d4fde146101ee578063c87b56dd14610201578063e985e9c514610214575f80fd5b80636352211e146101ad57806370a08231146101c057806395d89b41146101d3575f80fd5b8063095ea7b3116100c3578063095ea7b31461015157806323b872dd1461016657806340d097c31461017957806342842e0e1461019a575f80fd5b806301ffc9a7146100e957806306fdde0314610111578063081812fc14610126575b5f80fd5b6100fc6100f7366004610c09565b610227565b60405190151581526020015b60405180910390f35b610119610278565b6040516101089190610c71565b610139610134366004610c83565b610307565b6040516001600160a01b039091168152602001610108565b61016461015f366004610cb5565b61032e565b005b610164610174366004610cdd565b61033d565b61018c610187366004610d16565b6103cb565b604051908152602001610108565b6101646101a8366004610cdd565b6103f2565b6101396101bb366004610c83565b610411565b61018c6101ce366004610d16565b61041b565b610119610460565b6101646101e9366004610d2f565b61046f565b6101646101fc366004610d7c565b61047a565b61011961020f366004610c83565b610492565b6100fc610222366004610e51565b610503565b5f6001600160e01b031982166380ac58cd60e01b148061025757506001600160e01b03198216635b5e139f60e01b145b8061027257506301ffc9a760e01b6001600160e01b03198316145b92915050565b60605f805461028690610e82565b80601f01602080910402602001604051908101604052809291908181526020018280546102b290610e82565b80156102fd5780601f106102d4576101008083540402835291602001916102fd565b820191905f5260205f20905b8154815290600101906020018083116102e057829003601f168201915b5050505050905090565b5f61031182610530565b505f828152600460205260409020546001600160a01b0316610272565b610339828233610568565b5050565b6001600160a01b03821661036b57604051633250574960e11b81525f60048201526024015b60405180910390fd5b5f610377838333610575565b9050836001600160a01b0316816001600160a01b0316146103c5576040516364283d7b60e01b81526001600160a01b0380861660048301526024820184905282166044820152606401610362565b50505050565b5f600160065f015f8282546103e09190610eba565b90915550506006546102728382610667565b61040c83838360405180602001604052805f81525061047a565b505050565b5f61027282610530565b5f6001600160a01b038216610445576040516322718ad960e21b81525f6004820152602401610362565b506001600160a01b03165f9081526003602052604090205490565b60606001805461028690610e82565b610339338383610680565b61048584848461033d565b6103c5338585858561071e565b606061049d82610530565b505f6104b360408051602081019091525f815290565b90505f8151116104d15760405180602001604052805f8152506104fc565b806104db84610846565b6040516020016104ec929190610ed9565b6040516020818303038152906040525b9392505050565b6001600160a01b039182165f90815260056020908152604080832093909416825291909152205460ff1690565b5f818152600260205260408120546001600160a01b03168061027257604051637e27328960e01b815260048101849052602401610362565b61040c83838360016108d6565b5f828152600260205260408120546001600160a01b03908116908316156105a1576105a18184866109da565b6001600160a01b038116156105db576105bc5f855f806108d6565b6001600160a01b0381165f90815260036020526040902080545f190190555b6001600160a01b03851615610609576001600160a01b0385165f908152600360205260409020805460010190555b5f8481526002602052604080822080546001600160a01b0319166001600160a01b0389811691821790925591518793918516917fddf252ad1be2c89b69c2b068fc378daa952ba7f163c4a11628f55a4df523b3ef91a4949350505050565b610339828260405180602001604052805f815250610a3e565b6001600160a01b0382166106b257604051630b61174360e31b81526001600160a01b0383166004820152602401610362565b6001600160a01b038381165f81815260056020908152604080832094871680845294825291829020805460ff191686151590811790915591519182527f17307eab39ab6107e8899845ad3d59bd9653f200f220920489ca2b5937696c31910160405180910390a3505050565b6001600160a01b0383163b1561083f57604051630a85bd0160e11b81526001600160a01b0384169063150b7a0290610760908890889087908790600401610f07565b6020604051808303815f875af192505050801561079a575060408051601f3d908101601f1916820190925261079791810190610f43565b60015b610801573d8080156107c7576040519150601f19603f3d011682016040523d82523d5f602084013e6107cc565b606091505b5080515f036107f957604051633250574960e11b81526001600160a01b0385166004820152602401610362565b805181602001fd5b6001600160e01b03198116630a85bd0160e11b1461083d57604051633250574960e11b81526001600160a01b0385166004820152602401610362565b505b5050505050565b60605f61085283610a55565b60010190505f8167ffffffffffffffff81111561087157610871610d68565b6040519080825280601f01601f19166020018201604052801561089b576020820181803683370190505b5090508181016020015b5f19016f181899199a1a9b1b9c1cb0b131b232b360811b600a86061a8153600a85049450846108a557509392505050565b80806108ea57506001600160a01b03821615155b156109ab575f6108f984610530565b90506001600160a01b038316158015906109255750826001600160a01b0316816001600160a01b031614155b801561093857506109368184610503565b155b156109615760405163a9fbf51f60e01b81526001600160a01b0384166004820152602401610362565b81156109a95783856001600160a01b0316826001600160a01b03167f8c5be1e5ebec7d5bd14f71427d1e84f3dd0314c0f7b2291e5b200ac8c7c3b92560405160405180910390a45b505b50505f90815260046020526040902080546001600160a01b0319166001600160a01b0392909216919091179055565b6109e5838383610b2c565b61040c576001600160a01b038316610a1357604051637e27328960e01b815260048101829052602401610362565b60405163177e802f60e01b81526001600160a01b038316600482015260248101829052604401610362565b610a488383610b90565b61040c335f85858561071e565b5f8072184f03e93ff9f4daa797ed6e38ed64bf6a1f0160401b8310610a935772184f03e93ff9f4daa797ed6e38ed64bf6a1f0160401b830492506040015b6d04ee2d6d415b85acef81000000008310610abf576d04ee2d6d415b85acef8100000000830492506020015b662386f26fc100008310610add57662386f26fc10000830492506010015b6305f5e1008310610af5576305f5e100830492506008015b6127108310610b0957612710830492506004015b60648310610b1b576064830492506002015b600a83106102725760010192915050565b5f6001600160a01b03831615801590610b885750826001600160a01b0316846001600160a01b03161480610b655750610b658484610503565b80610b8857505f828152600460205260409020546001600160a01b038481169116145b949350505050565b6001600160a01b038216610bb957604051633250574960e11b81525f6004820152602401610362565b5f610bc583835f610575565b90506001600160a01b0381161561040c576040516339e3563760e11b81525f6004820152602401610362565b6001600160e01b031981168114610c06575f80fd5b50565b5f60208284031215610c19575f80fd5b81356104fc81610bf1565b5f5b83811015610c3e578181015183820152602001610c26565b50505f910152565b5f8151808452610c5d816020860160208601610c24565b601f01601f19169290920160200192915050565b602081525f6104fc6020830184610c46565b5f60208284031215610c93575f80fd5b5035919050565b80356001600160a01b0381168114610cb0575f80fd5b919050565b5f8060408385031215610cc6575f80fd5b610ccf83610c9a565b946020939093013593505050565b5f805f60608486031215610cef575f80fd5b610cf884610c9a565b9250610d0660208501610c9a565b9150604084013590509250925092565b5f60208284031215610d26575f80fd5b6104fc82610c9a565b5f8060408385031215610d40575f80fd5b610d4983610c9a565b915060208301358015158114610d5d575f80fd5b809150509250929050565b634e487b7160e01b5f52604160045260245ffd5b5f805f8060808587031215610d8f575f80fd5b610d9885610c9a565b9350610da660208601610c9a565b925060408501359150606085013567ffffffffffffffff80821115610dc9575f80fd5b818701915087601f830112610ddc575f80fd5b813581811115610dee57610dee610d68565b604051601f8201601f19908116603f01168101908382118183101715610e1657610e16610d68565b816040528281528a6020848701011115610e2e575f80fd5b826020860160208301375f60208483010152809550505050505092959194509250565b5f8060408385031215610e62575f80fd5b610e6b83610c9a565b9150610e7960208401610c9a565b90509250929050565b600181811c90821680610e9657607f821691505b602082108103610eb457634e487b7160e01b5f52602260045260245ffd5b50919050565b8082018082111561027257634e487b7160e01b5f52601160045260245ffd5b5f8351610eea818460208801610c24565b835190830190610efe818360208801610c24565b01949350505050565b6001600160a01b03858116825284166020820152604081018390526080606082018190525f90610f3990830184610c46565b9695505050505050565b5f60208284031215610f53575f80fd5b81516104fc81610bf156fea26469706673582212202e3ba57696d7c69413ff2900e5ac4bf9ac1df6aae68412f9e39703b5365d858764736f6c63430008140033",
  "immutableReferences": {},
  "source": "library Counters {\n    struct Counter {\n        uint256 _value;\n    }\n\n    function current(Counter storage counter) internal view returns (uint256) {\n        return counter._value;\n    }\n\n    function increment(Counter storage counter) internal {\n        unchecked {\n            counter._value += 1;\n        }\n    }\n\n    function reset(Counter storage counter) internal {\n        counter._value = 0;\n    }\n}\n\n// SPDX-License-Identifier: MIT\npragma solidity ^0.8.0;\n\nimport \"@openzeppelin/contracts/token/ERC721/ERC721.sol\";\n\ncontract EduCertificate is ERC721 {\n    using Counters for Counters.Counter;\n\n    struct Counter {\n        uint256 _value;\n    }\n    Counter private _tokenIdCounter;\n\n    constructor() ERC721(\"EduCertificate\", \"ECERT\") {}\n\n    function safeMint(address to) public returns (uint256) {\n        _tokenIdCounter._value += 1;\n        uint256 tokenId = _tokenIdCounter._value;\n        _safeMint(to, tokenId);\n        return tokenId;\n    }\n}\n",
  "sourcePath": "/Users/rajesh/Downloads/SINQ/blockchain/contracts/EduCertificate.sol",
  "compiler": {
    "name": "solc",
    "version": "0.8.20+commit.a1b79de6.Emscripten.clang"
  },
  "schemaVersion": "3.4.16",
  "updatedAt": "2025-02-08T06:59:23.264Z",
  "devdoc": {
    "errors": {
      "ERC721IncorrectOwner(address,uint256,address)": [
        {
          "details": "Indicates an error related to the ownership over a particular token. Used in transfers.",
          "params": {
            "owner": "Address of the current owner of a token.",
            "sender": "Address whose tokens are being transferred.",
            "tokenId": "Identifier number of a token."
          }
        }
      ],
      "ERC721InsufficientApproval(address,uint256)": [
        {
          "details": "Indicates a failure with the `operator`s approval. Used in transfers.",
          "params": {
            "operator": "Address that may be allowed to operate on tokens without being their owner.",
            "tokenId": "Identifier number of a token."
          }
        }
      ],
      "ERC721InvalidApprover(address)": [
        {
          "details": "Indicates a failure with the `approver` of a token to be approved. Used in approvals.",
          "params": {
            "approver": "Address initiating an approval operation."
          }
        }
      ],
      "ERC721InvalidOperator(address)": [
        {
          "details": "Indicates a failure with the `operator` to be approved. Used in approvals.",
          "params": {
            "operator": "Address that may be allowed to operate on tokens without being their owner."
          }
        }
      ],
      "ERC721InvalidOwner(address)": [
        {
          "details": "Indicates that an address can't be an owner. For example, `address(0)` is a forbidden owner in ERC-20. Used in balance queries.",
          "params": {
            "owner": "Address of the current owner of a token."
          }
        }
      ],
      "ERC721InvalidReceiver(address)": [
        {
          "details": "Indicates a failure with the token `receiver`. Used in transfers.",
          "params": {
            "receiver": "Address to which tokens are being transferred."
          }
        }
      ],
      "ERC721InvalidSender(address)": [
        {
          "details": "Indicates a failure with the token `sender`. Used in transfers.",
          "params": {
            "sender": "Address whose tokens are being transferred."
          }
        }
      ],
      "ERC721NonexistentToken(uint256)": [
        {
          "details": "Indicates a `tokenId` whose `owner` is the zero address.",
          "params": {
            "tokenId": "Identifier number of a token."
          }
        }
      ]
    },
    "events": {
      "Approval(address,address,uint256)": {
        "details": "Emitted when `owner` enables `approved` to manage the `tokenId` token."
      },
      "ApprovalForAll(address,address,bool)": {
        "details": "Emitted when `owner` enables or disables (`approved`) `operator` to manage all of its assets."
      },
      "Transfer(address,address,uint256)": {
        "details": "Emitted when `tokenId` token is transferred from `from` to `to`."
      }
    },
    "kind": "dev",
    "methods": {
      "approve(address,uint256)": {
        "details": "See {IERC721-approve}."
      },
      "balanceOf(address)": {
        "details": "See {IERC721-balanceOf}."
      },
      "getApproved(uint256)": {
        "details": "See {IERC721-getApproved}."
      },
      "isApprovedForAll(address,address)": {
        "details": "See {IERC721-isApprovedForAll}."
      },
      "name()": {
        "details": "See {IERC721Metadata-name}."
      },
      "ownerOf(uint256)": {
        "details": "See {IERC721-ownerOf}."
      },
      "safeTransferFrom(address,address,uint256)": {
        "details": "See {IERC721-safeTransferFrom}."
      },
      "safeTransferFrom(address,address,uint256,bytes)": {
        "details": "See {IERC721-safeTransferFrom}."
      },
      "setApprovalForAll(address,bool)": {
        "details": "See {IERC721-setApprovalForAll}."
      },
      "supportsInterface(bytes4)": {
        "details": "See {IERC165-supportsInterface}."
      },
      "symbol()": {
        "details": "See {IERC721Metadata-symbol}."
      },
      "tokenURI(uint256)": {
        "details": "See {IERC721Metadata-tokenURI}."
      },
      "transferFrom(address,address,uint256)": {
        "details": "See {IERC721-transferFrom}."
      }
    },
    "version": 1
  },
  "userdoc": {
    "kind": "user",
    "methods": {},
    "version": 1
  }
}