{
  "contractName": "Scholarship",
  "abi": [
    {
      "inputs": [],
      "stateMutability": "nonpayable",
      "type": "constructor"
    },
    {
      "inputs": [],
      "name": "admin",
      "outputs": [
        {
          "internalType": "address",
          "name": "",
          "type": "address"
        }
      ],
      "stateMutability": "view",
      "type": "function"
    },
    {
      "inputs": [
        {
          "internalType": "address",
          "name": "",
          "type": "address"
        }
      ],
      "name": "scholarshipBalance",
      "outputs": [
        {
          "internalType": "uint256",
          "name": "",
          "type": "uint256"
        }
      ],
      "stateMutability": "view",
      "type": "function"
    },
    {
      "stateMutability": "payable",
      "type": "receive"
    },
    {
      "inputs": [
        {
          "internalType": "address",
          "name": "student",
          "type": "address"
        },
        {
          "internalType": "uint256",
          "name": "amount",
          "type": "uint256"
        }
      ],
      "name": "fundScholarship",
      "outputs": [],
      "stateMutability": "nonpayable",
      "type": "function"
    },
    {
      "inputs": [
        {
          "internalType": "uint256",
          "name": "amount",
          "type": "uint256"
        }
      ],
      "name": "withdrawScholarship",
      "outputs": [],
      "stateMutability": "nonpayable",
      "type": "function"
    }
  ],
  "bytecode": "0x608060405234801561000f575f80fd5b505f80546001600160a01b031916331790556103248061002e5f395ff3fe608060405260043610610041575f3560e01c80638e310b431461004c578063bd611fab1461008a578063d974ef22146100ab578063f851a440146100ca575f80fd5b3661004857005b5f80fd5b348015610057575f80fd5b5061007761006636600461024f565b60016020525f908152604090205481565b6040519081526020015b60405180910390f35b348015610095575f80fd5b506100a96100a436600461026f565b610100565b005b3480156100b6575f80fd5b506100a96100c5366004610297565b61018e565b3480156100d5575f80fd5b505f546100e8906001600160a01b031681565b6040516001600160a01b039091168152602001610081565b5f546001600160a01b0316331461015e5760405162461bcd60e51b815260206004820152601b60248201527f4f6e6c792061646d696e2063616e20657865637574652074686973000000000060448201526064015b60405180910390fd5b6001600160a01b0382165f90815260016020526040812080548392906101859084906102c2565b90915550505050565b335f908152600160205260409020548111156101e35760405162461bcd60e51b8152602060048201526014602482015273496e73756666696369656e742062616c616e636560601b6044820152606401610155565b335f90815260016020526040812080548392906102019084906102db565b9091555050604051339082156108fc029083905f818181858888f19350505050158015610230573d5f803e3d5ffd5b5050565b80356001600160a01b038116811461024a575f80fd5b919050565b5f6020828403121561025f575f80fd5b61026882610234565b9392505050565b5f8060408385031215610280575f80fd5b61028983610234565b946020939093013593505050565b5f602082840312156102a7575f80fd5b5035919050565b634e487b7160e01b5f52601160045260245ffd5b808201808211156102d5576102d56102ae565b92915050565b818103818111156102d5576102d56102ae56fea26469706673582212205784b9cb5977cd39b5f7655128f1acee1d758d1d0c5ac66bd5ee0f27167a88bc64736f6c63430008140033",
  "immutableReferences": {},
  "source": "// SPDX-License-Identifier: MIT\npragma solidity ^0.8.0;\n\ncontract Scholarship {\n    address public admin;\n    mapping(address => uint256) public scholarshipBalance;\n\n    modifier onlyAdmin() {\n        require(msg.sender == admin, \"Only admin can execute this\");\n        _;\n    }\n\n    constructor() {\n        admin = msg.sender;\n    }\n\n    function fundScholarship(\n        address student,\n        uint256 amount\n    ) external onlyAdmin {\n        scholarshipBalance[student] += amount;\n    }\n\n    function withdrawScholarship(uint256 amount) external {\n        require(\n            scholarshipBalance[msg.sender] >= amount,\n            \"Insufficient balance\"\n        );\n        scholarshipBalance[msg.sender] -= amount;\n        payable(msg.sender).transfer(amount);\n    }\n\n    // Fallback function to receive funds\n    receive() external payable {}\n}\n",
  "sourcePath": "/Users/rajesh/Downloads/SINQ/blockchain/contracts/Scholarship.sol",
  "compiler": {
    "name": "solc",
    "version": "0.8.20+commit.a1b79de6.Emscripten.clang"
  },
  "schemaVersion": "3.4.16",
  "updatedAt": "2025-02-08T06:59:23.268Z",
  "devdoc": {
    "kind": "dev",
    "methods": {},
    "version": 1
  },
  "userdoc": {
    "kind": "user",
    "methods": {},
    "version": 1
  }
}